:020000000F28C7
:10000800DE00030E8312A0000408A1000A08A20063
:100018005F08A300BA281028AD01AE018301142897
:100028008312AB01AC01A801A901AA01AA0A0730F1
:10003800990483169101FF308500FF3095008113E4
:10004800870183128701CF3090059010FC308F0014
:1000580018308E000B178B1783160C14831210148C
:100068008312051C0716051A3B280716871505195C
:100078003F28071607158518432807168714851A79
:1000880094282A0803194D282E08AC002D08AB0027
:10009800AA012B09A4002C09A500A40A0319A50A82
:1000A8002D082407A6002E0803182E0A2507A700E6
:1000B80007302702D03003192602031C79282B09A0
:1000C800A4002C09A500A40A0319A50A2D082407D1
:1000D800A6002E0803182E0A2507A7000B302702B2
:1000E800B83003192602031C07122B09A4002C0997
:1000F800A500A40A0319A50A2D082407A6002E089E
:1001080003182E0A2507A700133027028830031981
:100118002602031C9428871007118711AA01AA0A2E
:100128002809A4002909A500A40A0319A50A2D086D
:100138002407A6002E0803182E0A2507A700033057
:100148002702E83003192602031CB8282E08A90044
:100158002D08A8000310871E0314031CB628831259
:100168008716B82883128712640034280C1CC92803
:1001780010100C100130AD070318AE0A0030AE079E
:10018800FC308F0018308E0010142308DF0022087E
:100198008A0021088400200E8300DE0E5E0E09000E
:02400E00DCFFD5
:00000001FF
